{
  "contractName": "PerformanceCheck",
  "abi": [
    {
      "constant": true,
      "inputs": [],
      "name": "FMFaults",
      "outputs": [
        {
          "name": "",
          "type": "uint256"
        }
      ],
      "payable": false,
      "stateMutability": "view",
      "type": "function"
    },
    {
      "constant": true,
      "inputs": [],
      "name": "stime",
      "outputs": [
        {
          "name": "",
          "type": "uint256"
        }
      ],
      "payable": false,
      "stateMutability": "view",
      "type": "function"
    },
    {
      "constant": true,
      "inputs": [],
      "name": "measurmentCount",
      "outputs": [
        {
          "name": "",
          "type": "uint256"
        }
      ],
      "payable": false,
      "stateMutability": "view",
      "type": "function"
    },
    {
      "constant": true,
      "inputs": [],
      "name": "amountFM",
      "outputs": [
        {
          "name": "",
          "type": "uint256"
        }
      ],
      "payable": false,
      "stateMutability": "view",
      "type": "function"
    },
    {
      "constant": true,
      "inputs": [],
      "name": "useraddress",
      "outputs": [
        {
          "name": "",
          "type": "address"
        }
      ],
      "payable": false,
      "stateMutability": "view",
      "type": "function"
    },
    {
      "constant": true,
      "inputs": [
        {
          "name": "",
          "type": "uint256"
        }
      ],
      "name": "COF",
      "outputs": [
        {
          "name": "COFnumber",
          "type": "uint256"
        },
        {
          "name": "devid",
          "type": "bytes32"
        },
        {
          "name": "time",
          "type": "uint256"
        },
        {
          "name": "buid",
          "type": "string"
        }
      ],
      "payable": false,
      "stateMutability": "view",
      "type": "function"
    },
    {
      "constant": true,
      "inputs": [],
      "name": "b",
      "outputs": [
        {
          "name": "",
          "type": "bool"
        }
      ],
      "payable": false,
      "stateMutability": "view",
      "type": "function"
    },
    {
      "constant": true,
      "inputs": [
        {
          "name": "",
          "type": "uint256"
        }
      ],
      "name": "FMF",
      "outputs": [
        {
          "name": "FMFnumber",
          "type": "uint256"
        },
        {
          "name": "devid",
          "type": "bytes32"
        },
        {
          "name": "time",
          "type": "uint256"
        },
        {
          "name": "buid",
          "type": "string"
        }
      ],
      "payable": false,
      "stateMutability": "view",
      "type": "function"
    },
    {
      "constant": true,
      "inputs": [
        {
          "name": "",
          "type": "uint256"
        }
      ],
      "name": "values",
      "outputs": [
        {
          "name": "measurmentnumber",
          "type": "uint256"
        },
        {
          "name": "devids",
          "type": "bytes32"
        },
        {
          "name": "buid",
          "type": "string"
        }
      ],
      "payable": false,
      "stateMutability": "view",
      "type": "function"
    },
    {
      "constant": true,
      "inputs": [],
      "name": "TxCount",
      "outputs": [
        {
          "name": "",
          "type": "uint256"
        }
      ],
      "payable": false,
      "stateMutability": "view",
      "type": "function"
    },
    {
      "constant": true,
      "inputs": [],
      "name": "NoFault",
      "outputs": [
        {
          "name": "",
          "type": "uint256"
        }
      ],
      "payable": false,
      "stateMutability": "view",
      "type": "function"
    },
    {
      "constant": true,
      "inputs": [
        {
          "name": "",
          "type": "uint256"
        }
      ],
      "name": "Evalues",
      "outputs": [
        {
          "name": "measurmentnumber",
          "type": "uint256"
        },
        {
          "name": "measures",
          "type": "uint256"
        },
        {
          "name": "buid",
          "type": "string"
        },
        {
          "name": "time",
          "type": "uint256"
        }
      ],
      "payable": false,
      "stateMutability": "view",
      "type": "function"
    },
    {
      "constant": true,
      "inputs": [],
      "name": "EmeasurmentCount",
      "outputs": [
        {
          "name": "",
          "type": "uint256"
        }
      ],
      "payable": false,
      "stateMutability": "view",
      "type": "function"
    },
    {
      "constant": true,
      "inputs": [],
      "name": "xtime",
      "outputs": [
        {
          "name": "",
          "type": "uint256"
        }
      ],
      "payable": false,
      "stateMutability": "view",
      "type": "function"
    },
    {
      "constant": true,
      "inputs": [],
      "name": "COFCount",
      "outputs": [
        {
          "name": "",
          "type": "uint256"
        }
      ],
      "payable": false,
      "stateMutability": "view",
      "type": "function"
    },
    {
      "constant": true,
      "inputs": [],
      "name": "AllfineCount",
      "outputs": [
        {
          "name": "",
          "type": "uint256"
        }
      ],
      "payable": false,
      "stateMutability": "view",
      "type": "function"
    },
    {
      "constant": true,
      "inputs": [],
      "name": "amountCO",
      "outputs": [
        {
          "name": "",
          "type": "uint256"
        }
      ],
      "payable": false,
      "stateMutability": "view",
      "type": "function"
    },
    {
      "constant": true,
      "inputs": [],
      "name": "state",
      "outputs": [
        {
          "name": "",
          "type": "uint256"
        }
      ],
      "payable": false,
      "stateMutability": "view",
      "type": "function"
    },
    {
      "constant": true,
      "inputs": [],
      "name": "_toFM",
      "outputs": [
        {
          "name": "",
          "type": "address"
        }
      ],
      "payable": false,
      "stateMutability": "view",
      "type": "function"
    },
    {
      "constant": true,
      "inputs": [
        {
          "name": "",
          "type": "uint256"
        }
      ],
      "name": "Txs",
      "outputs": [
        {
          "name": "Txnumber",
          "type": "uint256"
        },
        {
          "name": "buid",
          "type": "string"
        },
        {
          "name": "from",
          "type": "address"
        },
        {
          "name": "toCo",
          "type": "address"
        },
        {
          "name": "amCO",
          "type": "uint256"
        },
        {
          "name": "toFM",
          "type": "address"
        },
        {
          "name": "amFM",
          "type": "uint256"
        },
        {
          "name": "time",
          "type": "uint256"
        }
      ],
      "payable": false,
      "stateMutability": "view",
      "type": "function"
    },
    {
      "constant": true,
      "inputs": [],
      "name": "contractOwner",
      "outputs": [
        {
          "name": "",
          "type": "address"
        }
      ],
      "payable": false,
      "stateMutability": "view",
      "type": "function"
    },
    {
      "constant": true,
      "inputs": [],
      "name": "caseCount",
      "outputs": [
        {
          "name": "",
          "type": "uint256"
        }
      ],
      "payable": false,
      "stateMutability": "view",
      "type": "function"
    },
    {
      "constant": true,
      "inputs": [
        {
          "name": "",
          "type": "uint256"
        }
      ],
      "name": "Allfine",
      "outputs": [
        {
          "name": "Allfinenumber",
          "type": "uint256"
        },
        {
          "name": "devid",
          "type": "bytes32"
        },
        {
          "name": "time",
          "type": "uint256"
        },
        {
          "name": "buid",
          "type": "string"
        }
      ],
      "payable": false,
      "stateMutability": "view",
      "type": "function"
    },
    {
      "constant": true,
      "inputs": [],
      "name": "COFaults",
      "outputs": [
        {
          "name": "",
          "type": "uint256"
        }
      ],
      "payable": false,
      "stateMutability": "view",
      "type": "function"
    },
    {
      "constant": true,
      "inputs": [
        {
          "name": "",
          "type": "uint256"
        }
      ],
      "name": "cases",
      "outputs": [
        {
          "name": "CaseNumber",
          "type": "uint256"
        },
        {
          "name": "Owner",
          "type": "address"
        },
        {
          "name": "Contractor",
          "type": "address"
        },
        {
          "name": "FM",
          "type": "address"
        },
        {
          "name": "BuildingId",
          "type": "string"
        },
        {
          "name": "time",
          "type": "uint256"
        },
        {
          "name": "Erate",
          "type": "uint256"
        }
      ],
      "payable": false,
      "stateMutability": "view",
      "type": "function"
    },
    {
      "constant": true,
      "inputs": [],
      "name": "_toCo",
      "outputs": [
        {
          "name": "",
          "type": "address"
        }
      ],
      "payable": false,
      "stateMutability": "view",
      "type": "function"
    },
    {
      "constant": true,
      "inputs": [],
      "name": "FMFCount",
      "outputs": [
        {
          "name": "",
          "type": "uint256"
        }
      ],
      "payable": false,
      "stateMutability": "view",
      "type": "function"
    },
    {
      "inputs": [],
      "payable": false,
      "stateMutability": "nonpayable",
      "type": "constructor"
    },
    {
      "anonymous": false,
      "inputs": [
        {
          "indexed": true,
          "name": "BI",
          "type": "string"
        }
      ],
      "name": "BuildingAdded",
      "type": "event"
    },
    {
      "anonymous": false,
      "inputs": [
        {
          "indexed": false,
          "name": "caseCount",
          "type": "uint256"
        },
        {
          "indexed": false,
          "name": "Owner",
          "type": "address"
        },
        {
          "indexed": false,
          "name": "Contractor",
          "type": "address"
        },
        {
          "indexed": false,
          "name": "FM",
          "type": "address"
        },
        {
          "indexed": false,
          "name": "BuildingId",
          "type": "string"
        },
        {
          "indexed": false,
          "name": "TsetIDs",
          "type": "bytes32[]"
        },
        {
          "indexed": false,
          "name": "TIDs",
          "type": "bytes32[]"
        },
        {
          "indexed": false,
          "name": "RHuIDs",
          "type": "bytes32[]"
        },
        {
          "indexed": false,
          "name": "AQuIDs",
          "type": "bytes32[]"
        },
        {
          "indexed": false,
          "name": "time",
          "type": "uint256"
        }
      ],
      "name": "CaseCreated",
      "type": "event"
    },
    {
      "anonymous": false,
      "inputs": [
        {
          "indexed": false,
          "name": "diff",
          "type": "uint256"
        }
      ],
      "name": "diffcalculated",
      "type": "event"
    },
    {
      "constant": false,
      "inputs": [
        {
          "name": "boAddress",
          "type": "address"
        }
      ],
      "name": "boAdd",
      "outputs": [],
      "payable": false,
      "stateMutability": "nonpayable",
      "type": "function"
    },
    {
      "constant": true,
      "inputs": [
        {
          "name": "passAddress",
          "type": "address"
        }
      ],
      "name": "isWhitelisted",
      "outputs": [
        {
          "name": "",
          "type": "bool"
        }
      ],
      "payable": false,
      "stateMutability": "view",
      "type": "function"
    },
    {
      "constant": false,
      "inputs": [
        {
          "name": "account1",
          "type": "address"
        },
        {
          "name": "account2",
          "type": "address"
        },
        {
          "name": "account3",
          "type": "address"
        },
        {
          "name": "BI",
          "type": "string"
        },
        {
          "name": "TsetIDs",
          "type": "bytes32[]"
        },
        {
          "name": "TIDs",
          "type": "bytes32[]"
        },
        {
          "name": "RHuIDs",
          "type": "bytes32[]"
        },
        {
          "name": "AQuIDs",
          "type": "bytes32[]"
        },
        {
          "name": "depoam",
          "type": "uint256"
        },
        {
          "name": "Erate",
          "type": "uint256"
        }
      ],
      "name": "addCase",
      "outputs": [],
      "payable": false,
      "stateMutability": "nonpayable",
      "type": "function"
    },
    {
      "constant": false,
      "inputs": [],
      "name": "addDepo",
      "outputs": [],
      "payable": true,
      "stateMutability": "payable",
      "type": "function"
    },
    {
      "constant": true,
      "inputs": [
        {
          "name": "_select",
          "type": "uint256"
        }
      ],
      "name": "getarray",
      "outputs": [
        {
          "name": "devids",
          "type": "bytes32[]"
        }
      ],
      "payable": false,
      "stateMutability": "view",
      "type": "function"
    },
    {
      "constant": true,
      "inputs": [
        {
          "name": "_select",
          "type": "uint256"
        },
        {
          "name": "_id",
          "type": "bytes32"
        }
      ],
      "name": "chekRHuid",
      "outputs": [
        {
          "name": "a",
          "type": "bool"
        }
      ],
      "payable": false,
      "stateMutability": "view",
      "type": "function"
    },
    {
      "constant": true,
      "inputs": [
        {
          "name": "_select",
          "type": "uint256"
        },
        {
          "name": "_id",
          "type": "bytes32"
        }
      ],
      "name": "chekTid",
      "outputs": [
        {
          "name": "a",
          "type": "bool"
        }
      ],
      "payable": false,
      "stateMutability": "view",
      "type": "function"
    },
    {
      "constant": true,
      "inputs": [
        {
          "name": "_select",
          "type": "uint256"
        },
        {
          "name": "_id",
          "type": "bytes32"
        }
      ],
      "name": "chekAQuid",
      "outputs": [
        {
          "name": "a",
          "type": "bool"
        }
      ],
      "payable": false,
      "stateMutability": "view",
      "type": "function"
    },
    {
      "constant": false,
      "inputs": [
        {
          "name": "devid",
          "type": "bytes32"
        },
        {
          "name": "measures",
          "type": "uint256[]"
        },
        {
          "name": "buid",
          "type": "string"
        }
      ],
      "name": "addValue",
      "outputs": [],
      "payable": false,
      "stateMutability": "nonpayable",
      "type": "function"
    },
    {
      "constant": false,
      "inputs": [
        {
          "name": "measures",
          "type": "uint256"
        },
        {
          "name": "buid",
          "type": "string"
        }
      ],
      "name": "addEValue",
      "outputs": [],
      "payable": false,
      "stateMutability": "nonpayable",
      "type": "function"
    },
    {
      "constant": false,
      "inputs": [
        {
          "name": "_buid",
          "type": "string"
        },
        {
          "name": "checkstart",
          "type": "uint256"
        },
        {
          "name": "checkend",
          "type": "uint256"
        }
      ],
      "name": "statusQuoFM",
      "outputs": [],
      "payable": false,
      "stateMutability": "nonpayable",
      "type": "function"
    },
    {
      "constant": false,
      "inputs": [
        {
          "name": "_buid",
          "type": "string"
        },
        {
          "name": "checkstart",
          "type": "uint256"
        },
        {
          "name": "checkend",
          "type": "uint256"
        }
      ],
      "name": "statusQuoCO",
      "outputs": [],
      "payable": false,
      "stateMutability": "nonpayable",
      "type": "function"
    },
    {
      "constant": false,
      "inputs": [
        {
          "name": "_buid",
          "type": "string"
        },
        {
          "name": "checkstart",
          "type": "uint256"
        },
        {
          "name": "checkend",
          "type": "uint256"
        }
      ],
      "name": "statusQuoAll",
      "outputs": [],
      "payable": false,
      "stateMutability": "nonpayable",
      "type": "function"
    },
    {
      "constant": false,
      "inputs": [
        {
          "name": "_buid",
          "type": "string"
        },
        {
          "name": "COreceiver",
          "type": "address"
        },
        {
          "name": "FMreceiver",
          "type": "address"
        }
      ],
      "name": "makeTx",
      "outputs": [],
      "payable": false,
      "stateMutability": "nonpayable",
      "type": "function"
    }
  ],
  "bytecode": "0x60806040526000600155600060025560006003556000600455600060055560006006556000600755600060085560006009556000600a556000600b556000600c556000600d556000600e556000600f556000601060006101000a81548160ff02191690831515021790555034801561007657600080fd5b50336000806101000a81548173ffffffffffffffffffffffffffffffffffffffff021916908373ffffffffffffffffffffffffffffffffffffffff1602179055506152e8806100c66000396000f3fe6080604052600436106101f9576000357c0100000000000000000000000000000000000000000000000000000000900463ffffffff16806304615bb9146101fe578063070cfc631461030657806315b482901461033157806317be41581461035c57806328c2cd901461043857806328d559c1146104635780632e0f49e41461048e57806333ec6d48146104eb57806337fd625b146105c75780633971c4bc1461072d5780633af32abf1461078457806344133607146107ed5780634df7e3d0146108b65780634ef1ac14146108e55780635e383d21146109ae5780635ec282c114610a705780636ccd0bbc14610a9b57806371016c1514610ac65780637c4a9cb514610ba25780637da48b5c14610c6b578063844323fa14610c965780638d27274414610cc15780639717040514610d1e5780639e08a32914610d6f5780639ff7336014610e41578063a4697f1e14610e6c578063a792c7e614610e97578063c19d93fb14610ec2578063c4e347c614610eed578063c524fed214610f44578063ce606ee0146110ad578063d37357f714611104578063da2d7e9514611161578063ddee71481461118c578063e5ae5f7a14611519578063e88099f9146115e2578063efa6881714611672578063f09790dd1461169d578063f2647047146117ff578063f6c51eaa14611809578063fa043dd214611860575b600080fd5b34801561020a57600080fd5b506103046004803603606081101561022157600080fd5b810190808035906020019064010000000081111561023e57600080fd5b82018360208201111561025057600080fd5b8035906020019184600183028401116401000000008311171561027257600080fd5b91908080601f016020809104026020016040519081016040528093929190818152602001838380828437600081840152601f19601f820116905080830192505050505050509192919290803573ffffffffffffffffffffffffffffffffffffffff169060200190929190803573ffffffffffffffffffffffffffffffffffffffff16906020019092919050505061188b565b005b34801561031257600080fd5b5061031b612f00565b6040518082815260200191505060405180910390f35b34801561033d57600080fd5b50610346612f06565b6040518082815260200191505060405180910390f35b34801561036857600080fd5b506104366004803603606081101561037f57600080fd5b810190808035906020019064010000000081111561039c57600080fd5b8201836020820111156103ae57600080fd5b803590602001918460018302840111640100000000831117156103d057600080fd5b91908080601f016020809104026020016040519081016040528093929190818152602001838380828437600081840152601f19601f8201169050808301925050505050505091929192908035906020019092919080359060200190929190505050612f0c565b005b34801561044457600080fd5b5061044d61309b565b6040518082815260200191505060405180910390f35b34801561046f57600080fd5b506104786130a1565b6040518082815260200191505060405180910390f35b34801561049a57600080fd5b506104d1600480360360408110156104b157600080fd5b8101908080359060200190929190803590602001909291905050506130a7565b604051808215151515815260200191505060405180910390f35b3480156104f757600080fd5b506105c56004803603606081101561050e57600080fd5b810190808035906020019064010000000081111561052b57600080fd5b82018360208201111561053d57600080fd5b8035906020019184600183028401116401000000008311171561055f57600080fd5b91908080601f016020809104026020016040519081016040528093929190818152602001838380828437600081840152601f19601f8201169050808301925050505050505091929192908035906020019092919080359060200190929190505050613124565b005b3480156105d357600080fd5b5061072b600480360360608110156105ea57600080fd5b81019080803590602001909291908035906020019064010000000081111561061157600080fd5b82018360208201111561062357600080fd5b8035906020019184602083028401116401000000008311171561064557600080fd5b919080806020026020016040519081016040528093929190818152602001838360200280828437600081840152601f19601f820116905080830192505050505050509192919290803590602001906401000000008111156106a557600080fd5b8201836020820111156106b757600080fd5b803590602001918460018302840111640100000000831117156106d957600080fd5b91908080601f016020809104026020016040519081016040528093929190818152602001838380828437600081840152601f19601f8201169050808301925050505050505091929192905050506132b3565b005b34801561073957600080fd5b50610742613c62565b604051808273ffffffffffffffffffffffffffffffffffffffff1673ffffffffffffffffffffffffffffffffffffffff16815260200191505060405180910390f35b34801561079057600080fd5b506107d3600480360360208110156107a757600080fd5b81019080803573ffffffffffffffffffffffffffffffffffffffff169060200190929190505050613c88565b604051808215151515815260200191505060405180910390f35b3480156107f957600080fd5b506108266004803603602081101561081057600080fd5b8101908080359060200190929190505050613cde565b6040518085815260200184815260200183815260200180602001828103825283818151815260200191508051906020019080838360005b8381101561087857808201518184015260208101905061085d565b50505050905090810190601f1680156108a55780820380516001836020036101000a031916815260200191505b509550505050505060405180910390f35b3480156108c257600080fd5b506108cb613da6565b604051808215151515815260200191505060405180910390f35b3480156108f157600080fd5b5061091e6004803603602081101561090857600080fd5b8101908080359060200190929190505050613db9565b6040518085815260200184815260200183815260200180602001828103825283818151815260200191508051906020019080838360005b83811015610970578082015181840152602081019050610955565b50505050905090810190601f16801561099d5780820380516001836020036101000a031916815260200191505b509550505050505060405180910390f35b3480156109ba57600080fd5b506109e7600480360360208110156109d157600080fd5b8101908080359060200190929190505050613e81565b6040518084815260200183815260200180602001828103825283818151815260200191508051906020019080838360005b83811015610a33578082015181840152602081019050610a18565b50505050905090810190601f168015610a605780820380516001836020036101000a031916815260200191505b5094505050505060405180910390f35b348015610a7c57600080fd5b50610a85613f43565b6040518082815260200191505060405180910390f35b348015610aa757600080fd5b50610ab0613f49565b6040518082815260200191505060405180910390f35b348015610ad257600080fd5b50610ba060048036036060811015610ae957600080fd5b8101908080359060200190640100000000811115610b0657600080fd5b820183602082011115610b1857600080fd5b80359060200191846001830284011164010000000083111715610b3a57600080fd5b91908080601f016020809104026020016040519081016040528093929190818152602001838380828437600081840152601f19601f8201169050808301925050505050505091929192908035906020019092919080359060200190929190505050613f4f565b005b348015610bae57600080fd5b50610bdb60048036036020811015610bc557600080fd5b81019080803590602001909291905050506140de565b6040518085815260200184815260200180602001838152602001828103825284818151815260200191508051906020019080838360005b83811015610c2d578082015181840152602081019050610c12565b50505050905090810190601f168015610c5a5780820380516001836020036101000a031916815260200191505b509550505050505060405180910390f35b348015610c7757600080fd5b50610c806141a6565b6040518082815260200191505060405180910390f35b348015610ca257600080fd5b50610cab6141ac565b6040518082815260200191505060405180910390f35b348015610ccd57600080fd5b50610d0460048036036040811015610ce457600080fd5b8101908080359060200190929190803590602001909291905050506141b2565b604051808215151515815260200191505060405180910390f35b348015610d2a57600080fd5b50610d6d60048036036020811015610d4157600080fd5b81019080803573ffffffffffffffffffffffffffffffffffffffff16906020019092919050505061422f565b005b348015610d7b57600080fd5b50610e3f60048036036040811015610d9257600080fd5b810190808035906020019092919080359060200190640100000000811115610db957600080fd5b820183602082011115610dcb57600080fd5b80359060200191846001830284011164010000000083111715610ded57600080fd5b91908080601f016020809104026020016040519081016040528093929190818152602001838380828437600081840152601f19601f8201169050808301925050505050505091929192905050506144ec565b005b348015610e4d57600080fd5b50610e5661457f565b6040518082815260200191505060405180910390f35b348015610e7857600080fd5b50610e81614585565b6040518082815260200191505060405180910390f35b348015610ea357600080fd5b50610eac61458b565b6040518082815260200191505060405180910390f35b348015610ece57600080fd5b50610ed7614591565b6040518082815260200191505060405180910390f35b348015610ef957600080fd5b50610f02614597565b604051808273ffffffffffffffffffffffffffffffffffffffff1673ffffffffffffffffffffffffffffffffffffffff16815260200191505060405180910390f35b348015610f5057600080fd5b50610f7d60048036036020811015610f6757600080fd5b81019080803590602001909291905050506145bd565b60405180898152602001806020018873ffffffffffffffffffffffffffffffffffffffff1673ffffffffffffffffffffffffffffffffffffffff1681526020018773ffffffffffffffffffffffffffffffffffffffff1673ffffffffffffffffffffffffffffffffffffffff1681526020018681526020018573ffffffffffffffffffffffffffffffffffffffff1673ffffffffffffffffffffffffffffffffffffffff168152602001848152602001838152602001828103825289818151815260200191508051906020019080838360005b8381101561106b578082015181840152602081019050611050565b50505050905090810190601f1680156110985780820380516001836020036101000a031916815260200191505b50995050505050505050505060405180910390f35b3480156110b957600080fd5b506110c26146fd565b604051808273ffffffffffffffffffffffffffffffffffffffff1673ffffffffffffffffffffffffffffffffffffffff16815260200191505060405180910390f35b34801561111057600080fd5b506111476004803603604081101561112757600080fd5b810190808035906020019092919080359060200190929190505050614722565b604051808215151515815260200191505060405180910390f35b34801561116d57600080fd5b5061117661479f565b6040518082815260200191505060405180910390f35b34801561119857600080fd5b5061151760048036036101408110156111b057600080fd5b81019080803573ffffffffffffffffffffffffffffffffffffffff169060200190929190803573ffffffffffffffffffffffffffffffffffffffff169060200190929190803573ffffffffffffffffffffffffffffffffffffffff1690602001909291908035906020019064010000000081111561122d57600080fd5b82018360208201111561123f57600080fd5b8035906020019184600183028401116401000000008311171561126157600080fd5b91908080601f016020809104026020016040519081016040528093929190818152602001838380828437600081840152601f19601f820116905080830192505050505050509192919290803590602001906401000000008111156112c457600080fd5b8201836020820111156112d657600080fd5b803590602001918460208302840111640100000000831117156112f857600080fd5b919080806020026020016040519081016040528093929190818152602001838360200280828437600081840152601f19601f8201169050808301925050505050505091929192908035906020019064010000000081111561135857600080fd5b82018360208201111561136a57600080fd5b8035906020019184602083028401116401000000008311171561138c57600080fd5b919080806020026020016040519081016040528093929190818152602001838360200280828437600081840152601f19601f820116905080830192505050505050509192919290803590602001906401000000008111156113ec57600080fd5b8201836020820111156113fe57600080fd5b8035906020019184602083028401116401000000008311171561142057600080fd5b919080806020026020016040519081016040528093929190818152602001838360200280828437600081840152601f19601f8201169050808301925050505050505091929192908035906020019064010000000081111561148057600080fd5b82018360208201111561149257600080fd5b803590602001918460208302840111640100000000831117156114b457600080fd5b919080806020026020016040519081016040528093929190818152602001838360200280828437600081840152601f19601f82011690508083019250505050505050919291929080359060200190929190803590602001909291905050506147a5565b005b34801561152557600080fd5b506115526004803603602081101561153c57600080fd5b8101908080359060200190929190505050614d5c565b6040518085815260200184815260200183815260200180602001828103825283818151815260200191508051906020019080838360005b838110156115a4578082015181840152602081019050611589565b50505050905090810190601f1680156115d15780820380516001836020036101000a031916815260200191505b509550505050505060405180910390f35b3480156115ee57600080fd5b5061161b6004803603602081101561160557600080fd5b8101908080359060200190929190505050614e24565b6040518080602001828103825283818151815260200191508051906020019060200280838360005b8381101561165e578082015181840152602081019050611643565b505050509050019250505060405180910390f35b34801561167e57600080fd5b50611687614e92565b6040518082815260200191505060405180910390f35b3480156116a957600080fd5b506116d6600480360360208110156116c057600080fd5b8101908080359060200190929190505050614e98565b604051808881526020018773ffffffffffffffffffffffffffffffffffffffff1673ffffffffffffffffffffffffffffffffffffffff1681526020018673ffffffffffffffffffffffffffffffffffffffff1673ffffffffffffffffffffffffffffffffffffffff1681526020018573ffffffffffffffffffffffffffffffffffffffff1673ffffffffffffffffffffffffffffffffffffffff16815260200180602001848152602001838152602001828103825285818151815260200191508051906020019080838360005b838110156117be5780820151818401526020810190506117a3565b50505050905090810190601f1680156117eb5780820380516001836020036101000a031916815260200191505b509850505050505050505060405180910390f35b611807614fd2565b005b34801561181557600080fd5b5061181e615053565b604051808273ffffffffffffffffffffffffffffffffffffffff1673ffffffffffffffffffffffffffffffffffffffff16815260200191505060405180910390f35b34801561186c57600080fd5b50611875615079565b6040518082815260200191505060405180910390f35b61189433613c88565b1515611908576040517f08c379a00000000000000000000000000000000000000000000000000000000081526004018080602001828103825260188152602001807f6d73672073656e646572206973206e6f7420612075736572000000000000000081525060200191505060405180910390fd5b6000601060006101000a81548160ff021916908315150217905550600080905060008090506000600190505b6001805401811015611c8457856040516020018082805190602001908083835b6020831015156119795780518252602082019150602081019050602083039250611954565b6001836020036101000a03801982511681845116808217855250505050505090500191505060405160208183030381529060405280519060200120601360008381526020019081526020016000206004016040516020018082805460018160011615610100020316600290048015611a285780601f10611a06576101008083540402835291820191611a28565b820191906000526020600020905b815481529060010190602001808311611a14575b505091505060405160208183030381529060405280519060200120148015611ab157508473ffffffffffffffffffffffffffffffffffffffff166013600083815260200190815260200160002060020160009054906101000a900473ffffffffffffffffffffffffffffffffffffffff1673ffffffffffffffffffffffffffffffffffffffff16145b8015611b1e57508373ffffffffffffffffffffffffffffffffffffffff166013600083815260200190815260200160002060030160009054906101000a900473ffffffffffffffffffffffffffffffffffffffff1673ffffffffffffffffffffffffffffffffffffffff16145b15611c77578092506013600082815260200190815260200160002060020160009054906101000a900473ffffffffffffffffffffffffffffffffffffffff16601060016101000a81548173ffffffffffffffffffffffffffffffffffffffff021916908373ffffffffffffffffffffffffffffffffffffffff1602179055506013600082815260200190815260200160002060030160009054906101000a900473ffffffffffffffffffffffffffffffffffffffff16601160006101000a81548173ffffffffffffffffffffffffffffffffffffffff021916908373ffffffffffffffffffffffffffffffffffffffff16021790555060136000828152602001908152602001600020600a015491506013600082815260200190815260200160002060090154600781905550600754600f819055506001601060006101000a81548160ff0219169083151502179055506001600e819055505b8080600101915050611934565b5060011515601060009054906101000a900460ff161515141515611d10576040517f08c379a00000000000000000000000000000000000000000000000000000000081526004018080602001828103825260118152602001807f57726f6e67206275696c64696e6720496400000000000000000000000000000081525060200191505060405180910390fd5b6002600e8190555060004290506003600e819055506000600190505b600160045401811015611e9057866040516020018082805190602001908083835b602083101515611d725780518252602082019150602081019050602083039250611d4d565b6001836020036101000a03801982511681845116808217855250505050505090500191505060405160208183030381529060405280519060200120601b60008381526020019081526020016000206001016040516020018082805460018160011615610100020316600290048015611e215780601f10611dff576101008083540402835291820191611e21565b820191906000526020600020905b815481529060010190602001808311611e0d575b505091505060405160208183030381529060405280519060200120148015611e605750600754601b600083815260200190815260200160002060070154115b15611e8357601b6000828152602001908152602001600020600701546007819055505b8080600101915050611d2c565b5062069780600754820310151515611f5c576040517f08c379a00000000000000000000000000000000000000000000000000000000081526004018080602001828103825260448152602001807f596f752073686f756c642077616974206174206c6561737420666f7572206d6981526020017f6e75746520616674657220796f75722070726576696f7573207472616e73616381526020017f74696f6e0000000000000000000000000000000000000000000000000000000081525060600191505060405180910390fd5b6000809050600080905060008090506000809050600080905060008090506000674563918244f40000905062278d00600f5489031115156120c8576004600e8190555062069780600754890310158015611fbc5750620d2f006007548903105b15611fd657600181029150620697806007540197506120c3565b620d2f00600754890310158015611ff357506213c6806007548903105b1561200d57600281029150620d2f006007540197506120c2565b6213c68060075489031015801561202a5750621a5e006007548903105b15612044576003810291506213c6806007540197506120c1565b621a5e0060075489031015801561206157506220f5806007548903105b1561207b57600481029150621a5e006007540197506120c0565b6220f580600754890310158015612098575062278d006007548903105b156120b2576005810291506220f5806007540197506120bf565b600091506005600e819055505b5b5b5b5b6123da565b6006600e81905550600f5460075414156120e757600681029150612185565b62069780600f5460075403141561210357600581029150612184565b620d2f00600f5460075403141561211f57600481029150612183565b6213c680600f5460075403141561213b57600381029150612182565b621a5e00600f5460075403141561215757600281029150612181565b6220f580600f5460075403141561217357600181029150612180565b600091506007600e819055505b5b5b5b5b5b62278d00600f5401975060008a90505b6001548110156123cd578060136000600184018152602001908152602001600020600001819055506013600060018301815260200190815260200160002060136000838152602001908152602001600020600082015481600001556001820160009054906101000a900473ffffffffffffffffffffffffffffffffffffffff168160010160006101000a81548173ffffffffffffffffffffffffffffffffffffffff021916908373ffffffffffffffffffffffffffffffffffffffff1602179055506002820160009054906101000a900473ffffffffffffffffffffffffffffffffffffffff168160020160006101000a81548173ffffffffffffffffffffffffffffffffffffffff021916908373ffffffffffffffffffffffffffffffffffffffff1602179055506003820160009054906101000a900473ffffffffffffffffffffffffffffffffffffffff168160030160006101000a81548173ffffffffffffffffffffffffffffffffffffffff021916908373ffffffffffffffffffffffffffffffffffffffff1602179055506004820181600401908054600181600116156101000203166002900461234c92919061507f565b506005820181600501908054612363929190615106565b50600682018160060190805461237a929190615106565b506007820181600701908054612391929190615106565b5060088201816008019080546123a8929190615106565b5060098201548160090155600a82015481600a01559050508080600101915050612195565b5060018054036001819055505b6000600190505b60016003540181101561256d578d6040516020018082805190602001908083835b6020831015156124275780518252602082019150602081019050602083039250612402565b6001836020036101000a038019825116818451168082178552505050505050905001915050604051602081830303815290604052805190602001206017600083815260200190815260200160002060020160405160200180828054600181600116156101000203166002900480156124d65780601f106124b45761010080835404028352918201916124d6565b820191906000526020600020905b8154815290600101906020018083116124c2575b5050915050604051602081830303815290604052805190602001201480156125135750886017600083815260200190815260200160002060030154105b80156125375750600754601760008381526020019081526020016000206003015410155b156125605785806001019650506017600082815260200190815260200160002060010154870196505b80806001019150506123e1565b506000600190505b6001600954018110156126e6578d6040516020018082805190602001908083835b6020831015156125bb5780518252602082019150602081019050602083039250612596565b6001836020036101000a0380198251168184511680821785525050505050509050019150506040516020818303038152906040528051906020012060196000838152602001908152602001600020600301604051602001808280546001816001161561010002031660029004801561266a5780601f1061264857610100808354040283529182019161266a565b820191906000526020600020905b815481529060010190602001808311612656575b5050915050604051602081830303815290604052805190602001201480156126a75750886019600083815260200190815260200160002060020154105b80156126cb5750600754601960008381526020019081526020016000206002015410155b156126d95787806001019850505b8080600101915050612575565b506000600190505b60016008540181101561285f578d6040516020018082805190602001908083835b602083101515612734578051825260208201915060208101905060208303925061270f565b6001836020036101000a038019825116818451168082178552505050505050905001915050604051602081830303815290604052805190602001206018600083815260200190815260200160002060030160405160200180828054600181600116156101000203166002900480156127e35780601f106127c15761010080835404028352918201916127e3565b820191906000526020600020905b8154815290600101906020018083116127cf575b5050915050604051602081830303815290604052805190602001201480156128205750886018600083815260200190815260200160002060020154105b80156128445750600754601860008381526020019081526020016000206002015410155b156128525784806001019550505b80806001019150506126ee565b506000600190505b6001600a54018110156129d8578d6040516020018082805190602001908083835b6020831015156128ad5780518252602082019150602081019050602083039250612888565b6001836020036101000a03801982511681845116808217855250505050505090500191505060405160208183030381529060405280519060200120601a6000838152602001908152602001600020600301604051602001808280546001816001161561010002031660029004801561295c5780601f1061293a57610100808354040283529182019161295c565b820191906000526020600020905b815481529060010190602001808311612948575b505091505060405160208183030381529060405280519060200120148015612999575088601a600083815260200190815260200160002060020154105b80156129bd5750600754601a60008381526020019081526020016000206002015410155b156129cb5783806001019450505b8080600101915050612867565b506000851115612bb1576096898602606488028115156129f457fe5b041115612aab5783600384868a0101811515612a0c57fe5b041015612a1e57600087019650612aa6565b83600384868a0101811515612a2f57fe5b04118015612a4c575083600584868a0101811515612a4957fe5b04105b15612a5c5760c887019650612aa5565b83600584868a0101811515612a6d57fe5b0410158015612a8b575083600784868a0101811515612a8857fe5b04105b15612a9c5761015e87019650612aa4565b6101f4870196505b5b5b612bb0565b609689860260648802811515612abd57fe5b0411158015612adc5750606e89860260648802811515612ad957fe5b04115b15612ba85783600384868a0101811515612af257fe5b041015612b0457600087019650612ba3565b83600384868a0101811515612b1557fe5b04118015612b32575083600584868a0101811515612b2f57fe5b04105b15612b4257606487019650612ba2565b83600584868a0101811515612b5357fe5b0410158015612b71575083600784868a0101811515612b6e57fe5b04105b15612b815760c887019650612ba1565b8360328284811515612b8f57fe5b0402101515612ba05761012c870196505b5b5b5b612baf565b6000870196505b5b5b6064670de0b6b3a76400008802811515612bc757fe5b0482036005819055506064670de0b6b3a76400008502811515612be657fe5b0482036006819055506004600081548092919060010191905055506101006040519081016040528060045481526020018e81526020016000809054906101000a900473ffffffffffffffffffffffffffffffffffffffff1673ffffffffffffffffffffffffffffffffffffffff168152602001601060019054906101000a900473ffffffffffffffffffffffffffffffffffffffff1673ffffffffffffffffffffffffffffffffffffffff1681526020016005548152602001601160009054906101000a900473ffffffffffffffffffffffffffffffffffffffff1673ffffffffffffffffffffffffffffffffffffffff168152602001600654815260200189815250601b60006004548152602001908152602001600020600082015181600001556020820151816001019080519060200190612d24929190615158565b5060408201518160020160006101000a81548173ffffffffffffffffffffffffffffffffffffffff021916908373ffffffffffffffffffffffffffffffffffffffff16021790555060608201518160030160006101000a81548173ffffffffffffffffffffffffffffffffffffffff021916908373ffffffffffffffffffffffffffffffffffffffff1602179055506080820151816004015560a08201518160050160006101000a81548173ffffffffffffffffffffffffffffffffffffffff021916908373ffffffffffffffffffffffffffffffffffffffff16021790555060c0820151816006015560e08201518160070155905050601060019054906101000a900473ffffffffffffffffffffffffffffffffffffffff1673ffffffffffffffffffffffffffffffffffffffff166108fc6005549081150290604051600060405180830381858888f19350505050158015612e85573d6000803e3d6000fd5b50601160009054906101000a900473ffffffffffffffffffffffffffffffffffffffff1673ffffffffffffffffffffffffffffffffffffffff166108fc6006549081150290604051600060405180830381858888f19350505050158015612ef0573d6000803e3d6000fd5b5050505050505050505050505050565b600b5481565b600f5481565b6000600c819055506000600190505b60016009540181101561309557836040516020018082805190602001908083835b602083101515612f615780518252602082019150602081019050602083039250612f3c565b6001836020036101000a038019825116818451168082178552505050505050905001915050604051602081830303815290604052805190602001206019600083815260200190815260200160002060030160405160200180828054600181600116156101000203166002900480156130105780601f10612fee576101008083540402835291820191613010565b820191906000526020600020905b815481529060010190602001808311612ffc575b50509150506040516020818303038152906040528051906020012014801561304e575081601960008381526020019081526020016000206002015411155b8015613070575082601960008381526020019081526020016000206002015410155b1561308857600c600081548092919060010191905055505b8080600101915050612f1b565b50505050565b60025481565b60065481565b600080905060008090505b601360008581526020019081526020016000206008018054905081101561311a578260136000868152602001908152602001600020600801828154811015156130f757fe5b9060005260206000200154141561310d57600191505b80806001019150506130b2565b5080905092915050565b6000600d819055506000600190505b6001600a54018110156132ad57836040516020018082805190602001908083835b6020831015156131795780518252602082019150602081019050602083039250613154565b6001836020036101000a03801982511681845116808217855250505050505090500191505060405160208183030381529060405280519060200120601a600083815260200190815260200160002060030160405160200180828054600181600116156101000203166002900480156132285780601f10613206576101008083540402835291820191613228565b820191906000526020600020905b815481529060010190602001808311613214575b505091505060405160208183030381529060405280519060200120148015613266575081601a60008381526020019081526020016000206002015411155b8015613288575082601a60008381526020019081526020016000206002015410155b156132a057600d600081548092919060010191905055505b8080600101915050613133565b50505050565b6002600081548092919060010191905055506080604051908101604052806002548152602001848152602001838152602001828152506016600060025481526020019081526020016000206000820151816000015560208201518160010155604082015181600201908051906020019061332e9291906151d8565b50606082015181600301908051906020019061334b929190615158565b50905050600042905060dc83600081518110151561336557fe5b9060200190602002015111156135895760c883600181518110151561338657fe5b9060200190602002015110151561342557600860008154809291906001019190505550608060405190810160405280600854815260200185815260200182815260200183815250601860006008548152602001908152602001600020600082015181600001556020820151816001015560408201518160020155606082015181600301908051906020019061341c929190615158565b50905050613584565b60c883600181518110151561343657fe5b906020019060200201511080156134665750600083600181518110151561345957fe5b9060200190602002015114155b156134f95760096000815480929190600101919050555060806040519081016040528060095481526020018581526020018281526020018381525060196000600954815260200190815260200160002060008201518160000155602082015181600101556040820151816002015560608201518160030190805190602001906134f0929190615158565b50905050613583565b600a60008154809291906001019190505550608060405190810160405280600a54815260200185815260200182815260200183815250601a6000600a548152602001908152602001600020600082015181600001556020820151816001015560408201518160020155606082015181600301908051906020019061357e929190615158565b509050505b5b613c5c565b60c883600081518110151561359a57fe5b906020019060200201511080156135ca575060008360008151811015156135bd57fe5b9060200190602002015114155b156138545760b48360018151811015156135e057fe5b90602001906020020151101580613610575061271083600181518110151561360457fe5b90602001906020020151145b806136335750600083600181518110151561362757fe5b90602001906020020151145b80156136c5575060c883600281518110151561364b57fe5b906020019060200201511015801561367d575061025883600281518110151561367057fe5b9060200190602002015111155b806136a1575061271083600281518110151561369557fe5b90602001906020020151145b806136c4575060008360028151811015156136b857fe5b90602001906020020151145b5b801561373257506103e88360038151811015156136de57fe5b9060200190602002015111158061370e575061271083600381518110151561370257fe5b90602001906020020151145b806137315750600083600381518110151561372557fe5b90602001906020020151145b5b156137c557600a60008154809291906001019190505550608060405190810160405280600a54815260200185815260200182815260200183815250601a6000600a54815260200190815260200160002060008201518160000155602082015181600101556040820151816002015560608201518160030190805190602001906137bc929190615158565b5090505061384f565b600860008154809291906001019190505550608060405190810160405280600854815260200185815260200182815260200183815250601860006008548152602001908152602001600020600082015181600001556020820151816001015560408201518160020155606082015181600301908051906020019061384a929190615158565b509050505b613c5b565b60dc83600081518110151561386557fe5b9060200190602002015111158015613896575060c883600081518110151561388957fe5b9060200190602002015110155b15613bd05760b48360018151811015156138ac57fe5b90602001906020020151101561394a576009600081548092919060010191905055506080604051908101604052806009548152602001858152602001828152602001838152506019600060085481526020019081526020016000206000820151816000015560208201518160010155604082015181600201556060820151816003019080519060200190613941929190615158565b50905050613bcb565b60b483600181518110151561395b57fe5b9060200190602002015110158061398b575061271083600181518110151561397f57fe5b90602001906020020151145b806139ae575060008360018151811015156139a257fe5b90602001906020020151145b8015613a40575060c88360028151811015156139c657fe5b90602001906020020151101580156139f857506102588360028151811015156139eb57fe5b9060200190602002015111155b80613a1c5750612710836002815181101515613a1057fe5b90602001906020020151145b80613a3f57506000836002815181101515613a3357fe5b90602001906020020151145b5b8015613aad57506103e8836003815181101515613a5957fe5b90602001906020020151111580613a895750612710836003815181101515613a7d57fe5b90602001906020020151145b80613aac57506000836003815181101515613aa057fe5b90602001906020020151145b5b15613b4057600a60008154809291906001019190505550608060405190810160405280600a54815260200185815260200182815260200183815250601a6000600a5481526020019081526020016000206000820151816000015560208201518160010155604082015181600201556060820151816003019080519060200190613b37929190615158565b50905050613bca565b6008600081548092919060010191905055506080604051908101604052806008548152602001858152602001828152602001838152506018600060085481526020019081526020016000206000820151816000015560208201518160010155604082015181600201556060820151816003019080519060200190613bc5929190615158565b509050505b5b613c5a565b600a60008154809291906001019190505550608060405190810160405280600a54815260200185815260200182815260200183815250601a6000600a5481526020019081526020016000206000820151816000015560208201518160010155604082015181600201556060820151816003019080519060200190613c55929190615158565b509050505b5b5b50505050565b601460009054906101000a900473ffffffffffffffffffffffffffffffffffffffff1681565b6000601560008373ffffffffffffffffffffffffffffffffffffffff1673ffffffffffffffffffffffffffffffffffffffff16815260200190815260200160002060009054906101000a900460ff169050919050565b6019602052806000526040600020600091509050806000015490806001015490806002015490806003018054600181600116156101000203166002900480601f016020809104026020016040519081016040528092919081815260200182805460018160011615610100020316600290048015613d9c5780601f10613d7157610100808354040283529160200191613d9c565b820191906000526020600020905b815481529060010190602001808311613d7f57829003601f168201915b5050505050905084565b601060009054906101000a900460ff1681565b6018602052806000526040600020600091509050806000015490806001015490806002015490806003018054600181600116156101000203166002900480601f016020809104026020016040519081016040528092919081815260200182805460018160011615610100020316600290048015613e775780601f10613e4c57610100808354040283529160200191613e77565b820191906000526020600020905b815481529060010190602001808311613e5a57829003601f168201915b5050505050905084565b6016602052806000526040600020600091509050806000015490806001015490806003018054600181600116156101000203166002900480601f016020809104026020016040519081016040528092919081815260200182805460018160011615610100020316600290048015613f395780601f10613f0e57610100808354040283529160200191613f39565b820191906000526020600020905b815481529060010190602001808311613f1c57829003601f168201915b5050505050905083565b60045481565b600d5481565b6000600b819055506000600190505b6001600854018110156140d857836040516020018082805190602001908083835b602083101515613fa45780518252602082019150602081019050602083039250613f7f565b6001836020036101000a038019825116818451168082178552505050505050905001915050604051602081830303815290604052805190602001206018600083815260200190815260200160002060030160405160200180828054600181600116156101000203166002900480156140535780601f10614031576101008083540402835291820191614053565b820191906000526020600020905b81548152906001019060200180831161403f575b505091505060405160208183030381529060405280519060200120148015614091575081601860008381526020019081526020016000206002015411155b80156140b3575082601860008381526020019081526020016000206002015410155b156140cb57600b600081548092919060010191905055505b8080600101915050613f5e565b50505050565b6017602052806000526040600020600091509050806000015490806001015490806002018054600181600116156101000203166002900480601f0160208091040260200160405190810160405280929190818152602001828054600181600116156101000203166002900480156141965780601f1061416b57610100808354040283529160200191614196565b820191906000526020600020905b81548152906001019060200180831161417957829003601f168201915b5050505050908060030154905084565b60035481565b60075481565b600080905060008090505b60136000858152602001908152602001600020600701805490508110156142255782601360008681526020019081526020016000206007018281548110151561420257fe5b9060005260206000200154141561421857600191505b80806001019150506141bd565b5080905092915050565b6000809054906101000a900473ffffffffffffffffffffffffffffffffffffffff1673ffffffffffffffffffffffffffffffffffffffff163373ffffffffffffffffffffffffffffffffffffffff1614806142d657503373ffffffffffffffffffffffffffffffffffffffff166000809054906101000a900473ffffffffffffffffffffffffffffffffffffffff1673ffffffffffffffffffffffffffffffffffffffff16145b151561434a576040517f08c379a00000000000000000000000000000000000000000000000000000000081526004018080602001828103825260208152602001807f63616c6c6572206973206e6f742074686520636f6e7472616374206f776e657281525060200191505060405180910390fd5b600073ffffffffffffffffffffffffffffffffffffffff168173ffffffffffffffffffffffffffffffffffffffff16141580156143d15750601560008273ffffffffffffffffffffffffffffffffffffffff1673ffffffffffffffffffffffffffffffffffffffff16815260200190815260200160002060009054906101000a900460ff16155b1515614491576040517f08c379a00000000000000000000000000000000000000000000000000000000081526004018080602001828103825260438152602001807f546865204275696c64696e67206f776e65722061646472657373206973206e6f81526020017f7420636f7272656374206f7220697320616c726561647920696e20746865206c81526020017f697374000000000000000000000000000000000000000000000000000000000081525060600191505060405180910390fd5b6001601560008373ffffffffffffffffffffffffffffffffffffffff1673ffffffffffffffffffffffffffffffffffffffff16815260200190815260200160002060006101000a81548160ff02191690831515021790555050565b60036000815480929190600101919050555060004290506080604051908101604052806003548152602001848152602001838152602001828152506017600060025481526020019081526020016000206000820151816000015560208201518160010155604082015181600201908051906020019061456c929190615158565b5060608201518160030155905050505050565b60095481565b600a5481565b60055481565b600e5481565b601160009054906101000a900473ffffffffffffffffffffffffffffffffffffffff1681565b601b602052806000526040600020600091509050806000015490806001018054600181600116156101000203166002900480601f01602080910402602001604051908101604052809291908181526020018280546001816001161561010002031660029004801561466f5780601f106146445761010080835404028352916020019161466f565b820191906000526020600020905b81548152906001019060200180831161465257829003601f168201915b5050505050908060020160009054906101000a900473ffffffffffffffffffffffffffffffffffffffff16908060030160009054906101000a900473ffffffffffffffffffffffffffffffffffffffff16908060040154908060050160009054906101000a900473ffffffffffffffffffffffffffffffffffffffff16908060060154908060070154905088565b6000809054906101000a900473ffffffffffffffffffffffffffffffffffffffff1681565b600080905060008090505b60136000858152602001908152602001600020600601805490508110156147955782601360008681526020019081526020016000206006018281548110151561477257fe5b9060005260206000200154141561478857600191505b808060010191505061472d565b5080905092915050565b60015481565b6147ae8a613c88565b1515614822576040517f08c379a000000000000000000000000000000000000000000000000000000000815260040180806020018281038252601c8152602001807f6275696c64696e67206f776e6572206973206e6f74206120757365720000000081525060200191505060405180910390fd5b600b8214151561489a576040517f08c379a000000000000000000000000000000000000000000000000000000000815260040180806020018281038252600e8152602001807f6e6f7420656e6f7567206465706f00000000000000000000000000000000000081525060200191505060405180910390fd5b60016000815480929190600101919050555060004290506101606040519081016040528060015481526020018c73ffffffffffffffffffffffffffffffffffffffff1681526020018b73ffffffffffffffffffffffffffffffffffffffff1681526020018a73ffffffffffffffffffffffffffffffffffffffff168152602001898152602001888152602001878152602001868152602001858152602001828152602001838152506013600060015481526020019081526020016000206000820151816000015560208201518160010160006101000a81548173ffffffffffffffffffffffffffffffffffffffff021916908373ffffffffffffffffffffffffffffffffffffffff16021790555060408201518160020160006101000a81548173ffffffffffffffffffffffffffffffffffffffff021916908373ffffffffffffffffffffffffffffffffffffffff16021790555060608201518160030160006101000a81548173ffffffffffffffffffffffffffffffffffffffff021916908373ffffffffffffffffffffffffffffffffffffffff1602179055506080820151816004019080519060200190614a52929190615158565b5060a0820151816005019080519060200190614a6f929190615225565b5060c0820151816006019080519060200190614a8c929190615225565b5060e0820151816007019080519060200190614aa9929190615225565b50610100820151816008019080519060200190614ac7929190615225565b50610120820151816009015561014082015181600a01559050507f92557a386ebbb8aa5bef3f46a129f5391e7e520790f83fe3659532e40e719ac76001548c8c8c8c8c8c8c8c8a604051808b81526020018a73ffffffffffffffffffffffffffffffffffffffff1673ffffffffffffffffffffffffffffffffffffffff1681526020018973ffffffffffffffffffffffffffffffffffffffff1673ffffffffffffffffffffffffffffffffffffffff1681526020018873ffffffffffffffffffffffffffffffffffffffff1673ffffffffffffffffffffffffffffffffffffffff168152602001806020018060200180602001806020018060200187815260200186810386528c818151815260200191508051906020019080838360005b83811015614c00578082015181840152602081019050614be5565b50505050905090810190601f168015614c2d5780820380516001836020036101000a031916815260200191505b5086810385528b818151815260200191508051906020019060200280838360005b83811015614c69578082015181840152602081019050614c4e565b5050505090500186810384528a818151815260200191508051906020019060200280838360005b83811015614cab578082015181840152602081019050614c90565b50505050905001868103835289818151815260200191508051906020019060200280838360005b83811015614ced578082015181840152602081019050614cd2565b50505050905001868103825288818151815260200191508051906020019060200280838360005b83811015614d2f578082015181840152602081019050614d14565b505050509050019f5050505050505050505050505050505060405180910390a15050505050505050505050565b601a602052806000526040600020600091509050806000015490806001015490806002015490806003018054600181600116156101000203166002900480601f016020809104026020016040519081016040528092919081815260200182805460018160011615610100020316600290048015614e1a5780601f10614def57610100808354040283529160200191614e1a565b820191906000526020600020905b815481529060010190602001808311614dfd57829003601f168201915b5050505050905084565b606060136000838152602001908152602001600020600501805480602002602001604051908101604052809291908181526020018280548015614e8657602002820191906000526020600020905b815481526020019060010190808311614e72575b50505050509050919050565b600c5481565b60136020528060005260406000206000915090508060000154908060010160009054906101000a900473ffffffffffffffffffffffffffffffffffffffff16908060020160009054906101000a900473ffffffffffffffffffffffffffffffffffffffff16908060030160009054906101000a900473ffffffffffffffffffffffffffffffffffffffff1690806004018054600181600116156101000203166002900480601f016020809104026020016040519081016040528092919081815260200182805460018160011615610100020316600290048015614fbc5780601f10614f9157610100808354040283529160200191614fbc565b820191906000526020600020905b815481529060010190602001808311614f9f57829003601f168201915b50505050509080600901549080600a0154905087565b6798a7d9b8314c000034141515615051576040517f08c379a000000000000000000000000000000000000000000000000000000000815260040180806020018281038252600e8152602001807f6e6f7420656e6f7567206465706f00000000000000000000000000000000000081525060200191505060405180910390fd5b565b601060019054906101000a900473ffffffffffffffffffffffffffffffffffffffff1681565b60085481565b828054600181600116156101000203166002900490600052602060002090601f016020900481019282601f106150b857805485556150f5565b828001600101855582156150f557600052602060002091601f016020900482015b828111156150f45782548255916001019190600101906150d9565b5b5090506151029190615272565b5090565b8280548282559060005260206000209081019282156151475760005260206000209182015b8281111561514657825482559160010191906001019061512b565b5b5090506151549190615297565b5090565b828054600181600116156101000203166002900490600052602060002090601f016020900481019282601f1061519957805160ff19168380011785556151c7565b828001600101855582156151c7579182015b828111156151c65782518255916020019190600101906151ab565b5b5090506151d49190615272565b5090565b828054828255906000526020600020908101928215615214579160200282015b828111156152135782518255916020019190600101906151f8565b5b5090506152219190615272565b5090565b828054828255906000526020600020908101928215615261579160200282015b82811115615260578251825591602001919060010190615245565b5b50905061526e9190615297565b5090565b61529491905b80821115615290576000816000905550600101615278565b5090565b90565b6152b991905b808211156152b557600081600090555060010161529d565b5090565b9056fea165627a7a72305820708951962b23c11318d2cc0adc3eb03cd9ae551ec1ca47fa4c0ef08cf406a8f40029",
  "source": "pragma solidity ^0.5.0;\n\ncontract PerformanceCheck {\n  // Events\n  event BuildingAdded(string indexed BI);\n  event CaseCreated(uint256 caseCount,\n    address  Owner,\n    address  Contractor,\n    address FM,\n    string BuildingId,\n    bytes32[] TsetIDs,\n    bytes32[] TIDs,\n    bytes32[] RHuIDs,\n    bytes32[] AQuIDs,\n    uint256 time);\n\n  event diffcalculated(uint256 diff);\n\n// initial variables\n  address payable public contractOwner;\n  uint256 public caseCount = 0;\n  uint256 public measurmentCount = 0;\n  uint256 public EmeasurmentCount = 0;\n  //uint256 public compareCount = 0;\n  //uint256 public diffCount = 0;\n  uint256 public TxCount = 0;\n  //uint256 public diff = 0;\n  //uint256 public  size0 = 0;\n  uint256 public amountCO = 0;\n  uint256 public amountFM = 0;\n  uint256 public xtime = 0;\n  uint256 public FMFCount = 0;\n  uint256 public COFCount = 0;\n  uint256 public AllfineCount = 0;\n  uint256 public FMFaults = 0;\n  uint256 public COFaults = 0;\n  uint256 public NoFault = 0;\n  uint256 public state = 0;\n  uint256 public stime = 0;\n  bool public b = false;\n\n  address payable public _toCo;\n  address payable public _toFM;\n  mapping (address => uint256) private balances;\n\n//the buildings which should be observed are saved in this struct\n  struct CaseItem {\n    uint256 CaseNumber;\n    address Owner;\n    address payable Contractor;\n    address payable FM;\n    string BuildingId;\n    bytes32[] TsetIDs;\n    bytes32[] TIDs;\n    bytes32[] RHuIDs;\n    bytes32[] AQuIDs;\n    uint256 time;\n    uint256 Erate;\n  }\n\n  mapping(uint256 => CaseItem) public cases;\n\n  address public useraddress;\n  mapping(address => bool) Users;\n\n\n\n//measured value of different buildings are here\n  struct TempVals {\n    uint256 measurmentnumber;\n    bytes32 devids;\n    uint256[] measures;\n    string buid;\n  }\n\n  mapping(uint256 => TempVals) public values;\n\n  struct EVals {\n    uint256 measurmentnumber;\n    uint256 measures;\n    string buid;\n    uint256 time;\n  }\n\n  mapping(uint256 => EVals) public Evalues;\n\n  // the faults of the facility manager\n  struct FMFs {\n    uint256 FMFnumber;\n    bytes32 devid;\n    uint256 time;\n    string buid;\n  }\n  mapping(uint256 => FMFs) public FMF;\n\n\n\n  //the faults of the contractor\n  struct COFs {\n    uint256 COFnumber;\n    bytes32 devid;\n    uint256 time;\n    string buid;\n    }\n  mapping(uint256 => COFs) public COF;\n\n  //no ones fault\n  struct Allfines {\n    uint256 Allfinenumber;\n    bytes32 devid;\n    uint256 time;\n    string buid;\n  }\n  mapping(uint256 => Allfines) public Allfine;\n\n  struct TxEx {\n    uint256 Txnumber;\n    string buid;\n    address from;\n    address toCo;\n    uint256 amCO;\n    address toFM;\n    uint256 amFM;\n    uint256 time;\n  }\n  mapping(uint256 => TxEx) public Txs;\n\n  \n\n  modifier onlyOwner() {\n        require((msg.sender == contractOwner || contractOwner == msg.sender), \"caller is not the contract owner\");\n            _;\n    }\n\n  constructor()  public{\n        contractOwner = msg.sender;\n        //emit contractownerdefined(msg.sender);\n    }\n\n  //contract owner adds building owner as a user\n  function boAdd(address boAddress) public onlyOwner {\n        require((boAddress != address(0) && !Users[boAddress]), \"The Building owner address is not correct or is already in the list\");\n        Users[boAddress] = true;\n    }\n\n  function isWhitelisted(address passAddress) public view returns (bool) {\n        return Users[passAddress];\n    }\n\n  //adding a building and its information to the list to get checked\n  function addCase(address account1, address payable account2, address payable account3, \n                  string memory BI, bytes32[] memory TsetIDs, bytes32[] memory TIDs, \n                  bytes32[] memory RHuIDs, bytes32[] memory AQuIDs, uint256 depoam, uint256 Erate) public {\n    require (isWhitelisted(account1),\"building owner is not a user\");\n    require (depoam == 11,\"not enoug depo\");\n    caseCount ++;\n    uint256 time = block.timestamp;\n    cases[caseCount] = CaseItem(caseCount, account1, account2, account3, BI, TsetIDs, TIDs, RHuIDs, AQuIDs, time, Erate);\n    emit CaseCreated(caseCount, account1, account2, account3, BI, TsetIDs, TIDs, RHuIDs, AQuIDs, time);\n  }\n\n  //adding depo into contract account to be transfered later to the contractor and facility manager\n  function addDepo() public payable {\n    require (msg.value == 11 ether,\"not enoug depo\");\n    //ContractAdd.transfer(msg.value);\n    //Receive(msg.value);\n  }\n\n  //adding depo to contract owner account for gas fee of the sensor measurements\n  // function addDepo2() public payable {\n  //   require (msg.value == 20 ether,\"not enoug depo\");\n  //   contractOwner.transfer(20 ether);\n  // }\n\n  function getarray(uint256 _select) public view returns (bytes32[] memory devids) {\n    return cases[_select].TsetIDs;\n  }\n\n  function chekRHuid (uint256 _select, bytes32 _id) public view returns (bool  a) {\n    a = false;\n    for (uint256 i = 0; i<(cases[_select].RHuIDs.length); i++){\n      if (cases[_select].RHuIDs[i] == _id)\n      {\n        a = true;\n      }\n    }\n    return a;\n  }\n  function chekTid (uint256 _select, bytes32 _id) public view returns (bool  a) {\n    a = false;\n    for (uint256 i = 0; i<(cases[_select].TIDs.length); i++){\n      if (cases[_select].TIDs[i] == _id)\n      {\n        a = true;\n      }\n    }\n    return a;\n  }\n  function chekAQuid (uint256 _select, bytes32 _id) public view returns (bool  a) {\n    a = false;\n    for (uint256 i = 0; i<(cases[_select].AQuIDs.length); i++){\n      if (cases[_select].AQuIDs[i] == _id)\n      {\n        a = true;\n      }\n    }\n    return a;\n  }\n\n// adding measurement of sesnors and comparing them to the accepted range\n function addValue (bytes32 devid, uint256[] memory measures, string memory buid ) public {\n    measurmentCount ++;\n    values[measurmentCount] = TempVals (measurmentCount, devid, measures, buid);\n    uint256 time = block.timestamp;\n\n    //here we check diffrent measures\n      if ( measures[0]>220)\n      {\n        if(measures[1]>=200)\n        {\n          FMFCount ++;\n          FMF[FMFCount] = FMFs(FMFCount, devid, time, buid);\n        }\n        else if(measures[1]<200 && measures[1]!=0)\n        {\n          COFCount ++;\n          COF[COFCount] = COFs(COFCount, devid, time, buid);\n        }\n        else{\n          AllfineCount ++;\n          Allfine[AllfineCount] = Allfines(AllfineCount, devid, time, buid);\n        }\n      }\n      else if ( measures[0]<200 && measures[0]!=0)\n      {\n        if(((measures[1]>=180) || measures[1] == 10000 || measures[1] == 0 ) && ((measures[2]>=200 && measures[2]<=600) || measures[2]==10000 || measures[2]==0 ) && (measures[3] <= 1000 || measures[3] == 10000 || measures[3] == 0))\n        {\n          AllfineCount ++;\n          Allfine[AllfineCount] = Allfines(AllfineCount, devid, time, buid);\n        }\n        else\n        {\n          FMFCount ++;\n          FMF[FMFCount] = FMFs(FMFCount, devid, time, buid);\n        }\n       \n      }\n      else if ( measures[0]<=220 && measures[0]>=200)\n      {\n        if ((measures[1]<180))\n        {\n          COFCount ++;\n          COF[FMFCount] = COFs(COFCount, devid, time, buid);\n        }\n        else if(((measures[1]>=180) || measures[1] == 10000 || measures[1] == 0 ) && ((measures[2] >= 200 && measures[2]<= 600) || measures[2] == 10000 || measures[2] == 0 ) && (measures[3]<= 1000 || measures[3] == 10000 || measures[3] == 0))\n        {\n          AllfineCount ++;\n          Allfine[AllfineCount] = Allfines(AllfineCount, devid, time, buid);\n        }\n        else\n        {\n          FMFCount ++;\n          FMF[FMFCount] = FMFs(FMFCount, devid, time, buid);\n        }\n      }\n      else{\n        AllfineCount ++;\n        Allfine[AllfineCount] = Allfines(AllfineCount, devid, time, buid);\n      }\n  }\n  function addEValue ( uint256 measures, string memory buid ) public {\n    EmeasurmentCount ++;\n    uint256 time = block.timestamp;\n    Evalues[measurmentCount] = EVals (EmeasurmentCount, measures, buid, time);\n  }\n  function statusQuoFM (string memory _buid, uint256 checkstart, uint256 checkend) public {\n    FMFaults = 0;\n    for (uint256 i = 1; i<(FMFCount+1); i++)\n    {\n      if (keccak256(abi.encodePacked((FMF[i].buid))) == keccak256(abi.encodePacked((_buid))) &&\n      FMF[i].time <= checkend && FMF[i].time >= checkstart)\n      {\n        FMFaults ++;\n      }\n    }\n  }\n   function statusQuoCO (string memory _buid, uint256 checkstart, uint256 checkend) public {\n    COFaults = 0;\n\n    for (uint256 i = 1; i<(COFCount+1); i++)\n    {\n      if (keccak256(abi.encodePacked((COF[i].buid))) == keccak256(abi.encodePacked((_buid))) &&\n      COF[i].time <= checkend && COF[i].time >= checkstart)\n      {\n        COFaults ++;\n      }\n    }\n  }\n   function statusQuoAll (string memory _buid, uint256 checkstart, uint256 checkend) public {\n    NoFault = 0;\n    for (uint256 i = 1; i<(AllfineCount+1); i++)\n    {\n      if (keccak256(abi.encodePacked((Allfine[i].buid))) == keccak256(abi.encodePacked((_buid))) &&\n      Allfine[i].time <= checkend && Allfine[i].time >= checkstart)\n      {\n        NoFault ++;\n      }\n    }\n  }\n\n\n\n  function makeTx (string memory _buid, address payable COreceiver, address payable FMreceiver) public {\n    require (isWhitelisted(msg.sender),\"msg sender is not a user\");\n    b = false;\n    uint256 Cid = 0;\n    uint256 Erate = 0;\n    for (uint256 i=1; i<(caseCount+1); i++)\n    {\n      if ( keccak256(abi.encodePacked(( cases[uint256(i)].BuildingId))) == keccak256(abi.encodePacked((_buid))) &&\n      cases[uint256(i)].Contractor == COreceiver && cases[uint256(i)].FM == FMreceiver)\n      {\n        Cid = i;\n        _toCo = cases[uint256(i)].Contractor;\n        _toFM = cases[uint256(i)].FM;\n        Erate = cases[uint256(i)].Erate;\n        xtime = cases[uint256(i)].time;\n        stime = xtime;\n        b = true;\n        state = 1;\n      }\n    }\n    require (b == true, \"Wrong building Id\");\n    state = 2;\n    uint256 time = block.timestamp;\n\n    \n    state = 3;\n    for (uint256 i = 1; i<(TxCount+1); i++)\n    {\n      if ( keccak256(abi.encodePacked(( Txs[uint256(i)].buid))) == keccak256(abi.encodePacked((_buid))) && Txs[uint256(i)].time > xtime)\n      {\n        xtime = Txs[uint256(i)].time;\n\n      }\n\n    }\n    require ((time-xtime)>=432000, \"You should wait at least four minute after your previous transaction\");\n    uint256 totdiff1 = 0;\n    uint256 Esum = 0;\n    uint256 EsumCount = 0;\n    uint256 totdiff2 = 0;\n    uint256 totdiff3 = 0;\n    uint256 maxamount = 0;\n    //uint256 maxamount = (80*(duedate-xtime)/63072000)*1000000000000000000;\n    uint256 sixmonthamount = (5)*1000000000000000000;\n    if ((time - stime) <= 6*432000){\n      state = 4;\n      if ((time-xtime) >= 432000 && (time-xtime) < 2*432000)\n      {\n      maxamount = sixmonthamount * 1;\n      time = xtime + 432000;\n      }\n      else if ((time-xtime) >= 2*432000 && (time-xtime) < 3*432000 )\n      {\n      maxamount = sixmonthamount * 2;\n      time = xtime + 2*432000;\n      }\n      else if ((time-xtime) >= 3*432000 && (time-xtime) < 4*432000 )\n      {\n      maxamount = sixmonthamount * 3;\n      time = xtime + 3*432000;\n      }\n      else if ((time-xtime) >= 4*432000 && (time-xtime) < 5*432000 )\n      {\n      maxamount = sixmonthamount * 4;\n      time = xtime + 4*432000;\n      }\n      else if ((time-xtime) >= 5*432000 && (time-xtime) < 6*432000)\n      {\n      maxamount = sixmonthamount * 5;\n      time = xtime + 5*432000;\n      }\n      else {\n      maxamount = 0;\n      state = 5;\n      }\n    }\n    else  {\n      state = 6;\n      if (xtime == stime){\n        maxamount = sixmonthamount * 6;\n      }\n      else if ((xtime-stime) == 432000){\n        maxamount = sixmonthamount * 5;\n      }\n      else if ((xtime-stime) == 2*432000){\n        maxamount = sixmonthamount * 4;\n      }\n      else if ((xtime-stime) == 3*432000){\n        maxamount = sixmonthamount * 3;\n      }\n      else if ((xtime-stime) == 4*432000){\n        maxamount = sixmonthamount * 2;\n      }\n      else if ((xtime-stime) == 5*432000){\n        maxamount = sixmonthamount * 1;\n      }\n      else{\n        maxamount = 0;\n        state = 7;\n      }\n\n      time = stime+6*432000;\n      //cases.remove(Cid);\n      for (uint256 i = Cid; i<(caseCount); i++)\n      {\n        cases[i+1].CaseNumber = i;\n        cases[i] = cases[i+1];\n      }\n      caseCount = caseCount-1;\n    }\n    for (uint256 i = 1; i<(EmeasurmentCount+1); i++)\n    {\n      // if ( FMF[uint256(i)].caseid == caseNo && FMF[uint256(i)].time > (xtime-1) && FMF[uint256(i)].time < (time+1))\n      if ( keccak256(abi.encodePacked(( Evalues[uint256(i)].buid))) == keccak256(abi.encodePacked((_buid))) && Evalues[uint256(i)].time < time &&\n      Evalues[uint256(i)].time >= xtime )\n      {\n        EsumCount ++;\n        Esum += Evalues[uint256(i)].measures;\n      }\n    }\n    for (uint256 i = 1; i<(COFCount+1); i++)\n    {\n      // if ( FMF[uint256(i)].caseid == caseNo && FMF[uint256(i)].time > (xtime-1) && FMF[uint256(i)].time < (time+1))\n      if ( keccak256(abi.encodePacked(( COF[uint256(i)].buid))) == keccak256(abi.encodePacked((_buid))) && COF[uint256(i)].time < time &&\n      COF[uint256(i)].time >= xtime )\n      {\n        totdiff1 ++;\n      }\n    }\n\n    for (uint256 i = 1; i<(FMFCount+1); i++)\n    {\n      // if ( FMF[uint256(i)].caseid == caseNo && FMF[uint256(i)].time > (xtime-1) && FMF[uint256(i)].time < (time+1))\n      if ( keccak256(abi.encodePacked(( FMF[uint256(i)].buid))) == keccak256(abi.encodePacked((_buid))) &&\n      FMF[uint256(i)].time < time && FMF[uint256(i)].time >= xtime )\n      {\n        totdiff2 ++;\n      }\n    }\n    for (uint256 i = 1; i<(AllfineCount+1); i++)\n    {\n      // if ( FMF[uint256(i)].caseid == caseNo && FMF[uint256(i)].time > (xtime-1) && FMF[uint256(i)].time < (time+1))\n      if ( keccak256(abi.encodePacked(( Allfine[uint256(i)].buid))) == keccak256(abi.encodePacked((_buid))) &&\n      Allfine[uint256(i)].time < time && Allfine[uint256(i)].time >= xtime )\n      {\n        totdiff3 ++;\n      }\n    }\n\n\n    if (EsumCount>0){\n      if ((Esum*100/(EsumCount*Erate))>150){\n       if (((totdiff1+totdiff2+totdiff3)/3)<totdiff2 ){\n        totdiff1 += 0;\n      }\n      else if (((totdiff1+totdiff2+totdiff3)/3)>totdiff2 && ((totdiff1+totdiff2+totdiff3)/5)<totdiff2 ){\n        totdiff1 += 200;\n      }\n      else if (((totdiff1+totdiff2+totdiff3)/5)>=totdiff2 && ((totdiff1+totdiff2+totdiff3)/7)<totdiff2 ){\n        totdiff1 += 350;\n      }\n      else {\n        totdiff1 += 500;\n      }\n    }\n\n    else if ((Esum*100/(EsumCount*Erate))<=150 && (Esum*100/(EsumCount*Erate))>110){\n      if (((totdiff1+totdiff2+totdiff3)/3)<totdiff2 ){\n        totdiff1 += 0;\n      }\n      else if (((totdiff1+totdiff2+totdiff3)/3)>totdiff2 && ((totdiff1+totdiff2+totdiff3)/5)<totdiff2 ){\n        totdiff1 += 100;\n      }\n      else if (((totdiff1+totdiff2+totdiff3)/5)>=totdiff2 && ((totdiff1+totdiff2+totdiff3)/7)<totdiff2 ){\n        totdiff1 += 200;\n      }\n      else if ((maxamount/sixmonthamount*50)>=totdiff2){\n        totdiff1 += 300;\n\n      }\n        \n      \n    }\n    else \n    totdiff1 += 0;\n    }\n \n\n\n    amountCO = maxamount-(totdiff1*1000000000000000000/100);\n    amountFM = maxamount-(totdiff2*1000000000000000000/100);\n    //amount = 2*1000000000000000000;\n\n\n    TxCount ++;\n    Txs[TxCount] = TxEx (TxCount, _buid, contractOwner, _toCo, amountCO, _toFM, amountFM, time);\n\n    _toCo.transfer(amountCO);\n    _toFM.transfer(amountFM);\n    //emit CaseCreated(caseCount, account1, account2, BI, DeIDs);\n\n  }\n }\n",
  "sourcePath": "/home/habib/blockchain/client work/hassnat-trffle/contracts/PerformanceCheck.sol",
  "compiler": {
    "name": "solc",
    "version": "0.5.0+commit.1d4f565a.Emscripten.clang"
  },
  "schemaVersion": "3.4.16",
  "updatedAt": "2024-07-12T09:20:12.993Z",
  "networkType": "ethereum",
  "devdoc": {
    "methods": {}
  },
  "userdoc": {
    "methods": {}
  }
}